{
  "contractName": "andNFT",
  "abi": [
    {
      "inputs": [
        {
          "internalType": "address",
          "name": "_paymentToken",
          "type": "address"
        },
        {
          "internalType": "uint256",
          "name": "_price",
          "type": "uint256"
        }
      ],
      "stateMutability": "nonpayable",
      "type": "constructor"
    },
    {
      "anonymous": false,
      "inputs": [
        {
          "indexed": true,
          "internalType": "address",
          "name": "owner",
          "type": "address"
        },
        {
          "indexed": true,
          "internalType": "address",
          "name": "approved",
          "type": "address"
        },
        {
          "indexed": true,
          "internalType": "uint256",
          "name": "tokenId",
          "type": "uint256"
        }
      ],
      "name": "Approval",
      "type": "event"
    },
    {
      "anonymous": false,
      "inputs": [
        {
          "indexed": true,
          "internalType": "address",
          "name": "owner",
          "type": "address"
        },
        {
          "indexed": true,
          "internalType": "address",
          "name": "operator",
          "type": "address"
        },
        {
          "indexed": false,
          "internalType": "bool",
          "name": "approved",
          "type": "bool"
        }
      ],
      "name": "ApprovalForAll",
      "type": "event"
    },
    {
      "anonymous": false,
      "inputs": [
        {
          "indexed": true,
          "internalType": "address",
          "name": "from",
          "type": "address"
        },
        {
          "indexed": true,
          "internalType": "address",
          "name": "to",
          "type": "address"
        },
        {
          "indexed": true,
          "internalType": "uint256",
          "name": "tokenId",
          "type": "uint256"
        }
      ],
      "name": "Transfer",
      "type": "event"
    },
    {
      "inputs": [],
      "name": "admin",
      "outputs": [
        {
          "internalType": "address",
          "name": "",
          "type": "address"
        }
      ],
      "stateMutability": "view",
      "type": "function",
      "constant": true
    },
    {
      "inputs": [
        {
          "internalType": "address",
          "name": "to",
          "type": "address"
        },
        {
          "internalType": "uint256",
          "name": "tokenId",
          "type": "uint256"
        }
      ],
      "name": "approve",
      "outputs": [],
      "stateMutability": "nonpayable",
      "type": "function"
    },
    {
      "inputs": [
        {
          "internalType": "address",
          "name": "owner",
          "type": "address"
        }
      ],
      "name": "balanceOf",
      "outputs": [
        {
          "internalType": "uint256",
          "name": "",
          "type": "uint256"
        }
      ],
      "stateMutability": "view",
      "type": "function",
      "constant": true
    },
    {
      "inputs": [
        {
          "internalType": "uint256",
          "name": "tokenId",
          "type": "uint256"
        }
      ],
      "name": "getApproved",
      "outputs": [
        {
          "internalType": "address",
          "name": "",
          "type": "address"
        }
      ],
      "stateMutability": "view",
      "type": "function",
      "constant": true
    },
    {
      "inputs": [
        {
          "internalType": "address",
          "name": "owner",
          "type": "address"
        },
        {
          "internalType": "address",
          "name": "operator",
          "type": "address"
        }
      ],
      "name": "isApprovedForAll",
      "outputs": [
        {
          "internalType": "bool",
          "name": "",
          "type": "bool"
        }
      ],
      "stateMutability": "view",
      "type": "function",
      "constant": true
    },
    {
      "inputs": [],
      "name": "name",
      "outputs": [
        {
          "internalType": "string",
          "name": "",
          "type": "string"
        }
      ],
      "stateMutability": "view",
      "type": "function",
      "constant": true
    },
    {
      "inputs": [
        {
          "internalType": "uint256",
          "name": "tokenId",
          "type": "uint256"
        }
      ],
      "name": "ownerOf",
      "outputs": [
        {
          "internalType": "address",
          "name": "",
          "type": "address"
        }
      ],
      "stateMutability": "view",
      "type": "function",
      "constant": true
    },
    {
      "inputs": [
        {
          "internalType": "address",
          "name": "from",
          "type": "address"
        },
        {
          "internalType": "address",
          "name": "to",
          "type": "address"
        },
        {
          "internalType": "uint256",
          "name": "tokenId",
          "type": "uint256"
        }
      ],
      "name": "safeTransferFrom",
      "outputs": [],
      "stateMutability": "nonpayable",
      "type": "function"
    },
    {
      "inputs": [
        {
          "internalType": "address",
          "name": "from",
          "type": "address"
        },
        {
          "internalType": "address",
          "name": "to",
          "type": "address"
        },
        {
          "internalType": "uint256",
          "name": "tokenId",
          "type": "uint256"
        },
        {
          "internalType": "bytes",
          "name": "_data",
          "type": "bytes"
        }
      ],
      "name": "safeTransferFrom",
      "outputs": [],
      "stateMutability": "nonpayable",
      "type": "function"
    },
    {
      "inputs": [
        {
          "internalType": "address",
          "name": "operator",
          "type": "address"
        },
        {
          "internalType": "bool",
          "name": "approved",
          "type": "bool"
        }
      ],
      "name": "setApprovalForAll",
      "outputs": [],
      "stateMutability": "nonpayable",
      "type": "function"
    },
    {
      "inputs": [
        {
          "internalType": "bytes4",
          "name": "interfaceId",
          "type": "bytes4"
        }
      ],
      "name": "supportsInterface",
      "outputs": [
        {
          "internalType": "bool",
          "name": "",
          "type": "bool"
        }
      ],
      "stateMutability": "view",
      "type": "function",
      "constant": true
    },
    {
      "inputs": [],
      "name": "symbol",
      "outputs": [
        {
          "internalType": "string",
          "name": "",
          "type": "string"
        }
      ],
      "stateMutability": "view",
      "type": "function",
      "constant": true
    },
    {
      "inputs": [
        {
          "internalType": "uint256",
          "name": "tokenId",
          "type": "uint256"
        }
      ],
      "name": "tokenURI",
      "outputs": [
        {
          "internalType": "string",
          "name": "",
          "type": "string"
        }
      ],
      "stateMutability": "view",
      "type": "function",
      "constant": true
    },
    {
      "inputs": [
        {
          "internalType": "address",
          "name": "from",
          "type": "address"
        },
        {
          "internalType": "address",
          "name": "to",
          "type": "address"
        },
        {
          "internalType": "uint256",
          "name": "tokenId",
          "type": "uint256"
        }
      ],
      "name": "transferFrom",
      "outputs": [],
      "stateMutability": "nonpayable",
      "type": "function"
    },
    {
      "inputs": [
        {
          "internalType": "address",
          "name": "to",
          "type": "address"
        },
        {
          "internalType": "uint256",
          "name": "tokenId",
          "type": "uint256"
        }
      ],
      "name": "mind",
      "outputs": [],
      "stateMutability": "nonpayable",
      "type": "function"
    },
    {
      "inputs": [
        {
          "internalType": "uint256",
          "name": "tokenId",
          "type": "uint256"
        }
      ],
      "name": "burn",
      "outputs": [],
      "stateMutability": "nonpayable",
      "type": "function"
    }
  ],
  "bytecode": "0x60806040523480156200001157600080fd5b5060405162002f5b38038062002f5b8339818101604052810190620000379190620002bd565b6040518060400160405280600a81526020017f4e465420616e64726573000000000000000000000000000000000000000000008152506040518060400160405280600681526020017f4e4654414e4400000000000000000000000000000000000000000000000000008152508160009080519060200190620000bb92919062000168565b508060019080519060200190620000d492919062000168565b50505033600660006101000a81548173ffffffffffffffffffffffffffffffffffffffff021916908373ffffffffffffffffffffffffffffffffffffffff16021790555081600760006101000a81548173ffffffffffffffffffffffffffffffffffffffff021916908373ffffffffffffffffffffffffffffffffffffffff16021790555080600881905550505062000368565b828054620001769062000333565b90600052602060002090601f0160209004810192826200019a5760008555620001e6565b82601f10620001b557805160ff1916838001178555620001e6565b82800160010185558215620001e6579182015b82811115620001e5578251825591602001919060010190620001c8565b5b509050620001f59190620001f9565b5090565b5b8082111562000214576000816000905550600101620001fa565b5090565b600080fd5b600073ffffffffffffffffffffffffffffffffffffffff82169050919050565b60006200024a826200021d565b9050919050565b6200025c816200023d565b81146200026857600080fd5b50565b6000815190506200027c8162000251565b92915050565b6000819050919050565b620002978162000282565b8114620002a357600080fd5b50565b600081519050620002b7816200028c565b92915050565b60008060408385031215620002d757620002d662000218565b5b6000620002e7858286016200026b565b9250506020620002fa85828601620002a6565b9150509250929050565b7f4e487b7100000000000000000000000000000000000000000000000000000000600052602260045260246000fd5b600060028204905060018216806200034c57607f821691505b60208210810362000362576200036162000304565b5b50919050565b612be380620003786000396000f3fe608060405234801561001057600080fd5b50600436106101005760003560e01c806370a0823111610097578063c87b56dd11610066578063c87b56dd146102a9578063d9013436146102d9578063e985e9c5146102f5578063f851a4401461032557610100565b806370a082311461022357806395d89b4114610253578063a22cb46514610271578063b88d4fde1461028d57610100565b806323b872dd116100d357806323b872dd1461019f57806342842e0e146101bb57806342966c68146101d75780636352211e146101f357610100565b806301ffc9a71461010557806306fdde0314610135578063081812fc14610153578063095ea7b314610183575b600080fd5b61011f600480360381019061011a9190611a83565b610343565b60405161012c9190611acb565b60405180910390f35b61013d610425565b60405161014a9190611b7f565b60405180910390f35b61016d60048036038101906101689190611bd7565b6104b7565b60405161017a9190611c45565b60405180910390f35b61019d60048036038101906101989190611c8c565b61053c565b005b6101b960048036038101906101b49190611ccc565b610653565b005b6101d560048036038101906101d09190611ccc565b6106b3565b005b6101f160048036038101906101ec9190611bd7565b6106d3565b005b61020d60048036038101906102089190611bd7565b6107c4565b60405161021a9190611c45565b60405180910390f35b61023d60048036038101906102389190611d1f565b610875565b60405161024a9190611d5b565b60405180910390f35b61025b61092c565b6040516102689190611b7f565b60405180910390f35b61028b60048036038101906102869190611da2565b6109be565b005b6102a760048036038101906102a29190611f17565b6109d4565b005b6102c360048036038101906102be9190611bd7565b610a36565b6040516102d09190611b7f565b60405180910390f35b6102f360048036038101906102ee9190611c8c565b610add565b005b61030f600480360381019061030a9190611f9a565b610c20565b60405161031c9190611acb565b60405180910390f35b61032d610cb4565b60405161033a9190611c45565b60405180910390f35b60007f80ac58cd000000000000000000000000000000000000000000000000000000007bffffffffffffffffffffffffffffffffffffffffffffffffffffffff1916827bffffffffffffffffffffffffffffffffffffffffffffffffffffffff1916148061040e57507f5b5e139f000000000000000000000000000000000000000000000000000000007bffffffffffffffffffffffffffffffffffffffffffffffffffffffff1916827bffffffffffffffffffffffffffffffffffffffffffffffffffffffff1916145b8061041e575061041d82610cda565b5b9050919050565b60606000805461043490612009565b80601f016020809104026020016040519081016040528092919081815260200182805461046090612009565b80156104ad5780601f10610482576101008083540402835291602001916104ad565b820191906000526020600020905b81548152906001019060200180831161049057829003601f168201915b5050505050905090565b60006104c282610d44565b610501576040517f08c379a00000000000000000000000000000000000000000000000000000000081526004016104f8906120ac565b60405180910390fd5b6004600083815260200190815260200160002060009054906101000a900473ffffffffffffffffffffffffffffffffffffffff169050919050565b6000610547826107c4565b90508073ffffffffffffffffffffffffffffffffffffffff168373ffffffffffffffffffffffffffffffffffffffff16036105b7576040517f08c379a00000000000000000000000000000000000000000000000000000000081526004016105ae9061213e565b60405180910390fd5b8073ffffffffffffffffffffffffffffffffffffffff166105d6610db0565b73ffffffffffffffffffffffffffffffffffffffff1614806106055750610604816105ff610db0565b610c20565b5b610644576040517f08c379a000000000000000000000000000000000000000000000000000000000815260040161063b906121d0565b60405180910390fd5b61064e8383610db8565b505050565b61066461065e610db0565b82610e71565b6106a3576040517f08c379a000000000000000000000000000000000000000000000000000000000815260040161069a90612262565b60405180910390fd5b6106ae838383610f4f565b505050565b6106ce838383604051806020016040528060008152506109d4565b505050565b6106dc816107c4565b73ffffffffffffffffffffffffffffffffffffffff163373ffffffffffffffffffffffffffffffffffffffff161461071357600080fd5b600760009054906101000a900473ffffffffffffffffffffffffffffffffffffffff1673ffffffffffffffffffffffffffffffffffffffff166323b872dd30336008546040518463ffffffff1660e01b815260040161077493929190612282565b6020604051808303816000875af1158015610793573d6000803e3d6000fd5b505050506040513d601f19601f820116820180604052508101906107b791906122ce565b506107c1816111b5565b50565b6000806002600084815260200190815260200160002060009054906101000a900473ffffffffffffffffffffffffffffffffffffffff169050600073ffffffffffffffffffffffffffffffffffffffff168173ffffffffffffffffffffffffffffffffffffffff160361086c576040517f08c379a00000000000000000000000000000000000000000000000000000000081526004016108639061236d565b60405180910390fd5b80915050919050565b60008073ffffffffffffffffffffffffffffffffffffffff168273ffffffffffffffffffffffffffffffffffffffff16036108e5576040517f08c379a00000000000000000000000000000000000000000000000000000000081526004016108dc906123ff565b60405180910390fd5b600360008373ffffffffffffffffffffffffffffffffffffffff1673ffffffffffffffffffffffffffffffffffffffff168152602001908152602001600020549050919050565b60606001805461093b90612009565b80601f016020809104026020016040519081016040528092919081815260200182805461096790612009565b80156109b45780601f10610989576101008083540402835291602001916109b4565b820191906000526020600020905b81548152906001019060200180831161099757829003601f168201915b5050505050905090565b6109d06109c9610db0565b83836112d2565b5050565b6109e56109df610db0565b83610e71565b610a24576040517f08c379a0000000000000000000000000000000000000000000000000000000008152600401610a1b90612262565b60405180910390fd5b610a308484848461143e565b50505050565b6060610a4182610d44565b610a80576040517f08c379a0000000000000000000000000000000000000000000000000000000008152600401610a7790612491565b60405180910390fd5b6000610a8a61149a565b90506000815111610aaa5760405180602001604052806000815250610ad5565b80610ab4846114b1565b604051602001610ac59291906124ed565b6040516020818303038152906040525b915050919050565b600660009054906101000a900473ffffffffffffffffffffffffffffffffffffffff1673ffffffffffffffffffffffffffffffffffffffff163373ffffffffffffffffffffffffffffffffffffffff1614610b6d576040517f08c379a0000000000000000000000000000000000000000000000000000000008152600401610b649061255d565b60405180910390fd5b600760009054906101000a900473ffffffffffffffffffffffffffffffffffffffff1673ffffffffffffffffffffffffffffffffffffffff166323b872dd33306008546040518463ffffffff1660e01b8152600401610bce93929190612282565b6020604051808303816000875af1158015610bed573d6000803e3d6000fd5b505050506040513d601f19601f82011682018060405250810190610c1191906122ce565b50610c1c8282611611565b5050565b6000600560008473ffffffffffffffffffffffffffffffffffffffff1673ffffffffffffffffffffffffffffffffffffffff16815260200190815260200160002060008373ffffffffffffffffffffffffffffffffffffffff1673ffffffffffffffffffffffffffffffffffffffff16815260200190815260200160002060009054906101000a900460ff16905092915050565b600660009054906101000a900473ffffffffffffffffffffffffffffffffffffffff1681565b60007f01ffc9a7000000000000000000000000000000000000000000000000000000007bffffffffffffffffffffffffffffffffffffffffffffffffffffffff1916827bffffffffffffffffffffffffffffffffffffffffffffffffffffffff1916149050919050565b60008073ffffffffffffffffffffffffffffffffffffffff166002600084815260200190815260200160002060009054906101000a900473ffffffffffffffffffffffffffffffffffffffff1673ffffffffffffffffffffffffffffffffffffffff1614159050919050565b600033905090565b816004600083815260200190815260200160002060006101000a81548173ffffffffffffffffffffffffffffffffffffffff021916908373ffffffffffffffffffffffffffffffffffffffff160217905550808273ffffffffffffffffffffffffffffffffffffffff16610e2b836107c4565b73ffffffffffffffffffffffffffffffffffffffff167f8c5be1e5ebec7d5bd14f71427d1e84f3dd0314c0f7b2291e5b200ac8c7c3b92560405160405180910390a45050565b6000610e7c82610d44565b610ebb576040517f08c379a0000000000000000000000000000000000000000000000000000000008152600401610eb2906125ef565b60405180910390fd5b6000610ec6836107c4565b90508073ffffffffffffffffffffffffffffffffffffffff168473ffffffffffffffffffffffffffffffffffffffff161480610f085750610f078185610c20565b5b80610f4657508373ffffffffffffffffffffffffffffffffffffffff16610f2e846104b7565b73ffffffffffffffffffffffffffffffffffffffff16145b91505092915050565b8273ffffffffffffffffffffffffffffffffffffffff16610f6f826107c4565b73ffffffffffffffffffffffffffffffffffffffff1614610fc5576040517f08c379a0000000000000000000000000000000000000000000000000000000008152600401610fbc90612681565b60405180910390fd5b600073ffffffffffffffffffffffffffffffffffffffff168273ffffffffffffffffffffffffffffffffffffffff1603611034576040517f08c379a000000000000000000000000000000000000000000000000000000000815260040161102b90612713565b60405180910390fd5b61103f83838361162f565b61104a600082610db8565b6001600360008573ffffffffffffffffffffffffffffffffffffffff1673ffffffffffffffffffffffffffffffffffffffff168152602001908152602001600020600082825461109a9190612762565b925050819055506001600360008473ffffffffffffffffffffffffffffffffffffffff1673ffffffffffffffffffffffffffffffffffffffff16815260200190815260200160002060008282546110f19190612796565b92505081905550816002600083815260200190815260200160002060006101000a81548173ffffffffffffffffffffffffffffffffffffffff021916908373ffffffffffffffffffffffffffffffffffffffff160217905550808273ffffffffffffffffffffffffffffffffffffffff168473ffffffffffffffffffffffffffffffffffffffff167fddf252ad1be2c89b69c2b068fc378daa952ba7f163c4a11628f55a4df523b3ef60405160405180910390a46111b0838383611634565b505050565b60006111c0826107c4565b90506111ce8160008461162f565b6111d9600083610db8565b6001600360008373ffffffffffffffffffffffffffffffffffffffff1673ffffffffffffffffffffffffffffffffffffffff16815260200190815260200160002060008282546112299190612762565b925050819055506002600083815260200190815260200160002060006101000a81549073ffffffffffffffffffffffffffffffffffffffff021916905581600073ffffffffffffffffffffffffffffffffffffffff168273ffffffffffffffffffffffffffffffffffffffff167fddf252ad1be2c89b69c2b068fc378daa952ba7f163c4a11628f55a4df523b3ef60405160405180910390a46112ce81600084611634565b5050565b8173ffffffffffffffffffffffffffffffffffffffff168373ffffffffffffffffffffffffffffffffffffffff1603611340576040517f08c379a000000000000000000000000000000000000000000000000000000000815260040161133790612838565b60405180910390fd5b80600560008573ffffffffffffffffffffffffffffffffffffffff1673ffffffffffffffffffffffffffffffffffffffff16815260200190815260200160002060008473ffffffffffffffffffffffffffffffffffffffff1673ffffffffffffffffffffffffffffffffffffffff16815260200190815260200160002060006101000a81548160ff0219169083151502179055508173ffffffffffffffffffffffffffffffffffffffff168373ffffffffffffffffffffffffffffffffffffffff167f17307eab39ab6107e8899845ad3d59bd9653f200f220920489ca2b5937696c31836040516114319190611acb565b60405180910390a3505050565b611449848484610f4f565b61145584848484611639565b611494576040517f08c379a000000000000000000000000000000000000000000000000000000000815260040161148b906128ca565b60405180910390fd5b50505050565b606060405180602001604052806000815250905090565b6060600082036114f8576040518060400160405280600181526020017f3000000000000000000000000000000000000000000000000000000000000000815250905061160c565b600082905060005b6000821461152a578080611513906128ea565b915050600a826115239190612961565b9150611500565b60008167ffffffffffffffff81111561154657611545611dec565b5b6040519080825280601f01601f1916602001820160405280156115785781602001600182028036833780820191505090505b5090505b60008514611605576001826115919190612762565b9150600a856115a09190612992565b60306115ac9190612796565b60f81b8183815181106115c2576115c16129c3565b5b60200101907effffffffffffffffffffffffffffffffffffffffffffffffffffffffffffff1916908160001a905350600a856115fe9190612961565b945061157c565b8093505050505b919050565b61162b8282604051806020016040528060008152506117c0565b5050565b505050565b505050565b600061165a8473ffffffffffffffffffffffffffffffffffffffff1661181b565b156117b3578373ffffffffffffffffffffffffffffffffffffffff1663150b7a02611683610db0565b8786866040518563ffffffff1660e01b81526004016116a59493929190612a47565b6020604051808303816000875af19250505080156116e157506040513d601f19601f820116820180604052508101906116de9190612aa8565b60015b611763573d8060008114611711576040519150601f19603f3d011682016040523d82523d6000602084013e611716565b606091505b50600081510361175b576040517f08c379a0000000000000000000000000000000000000000000000000000000008152600401611752906128ca565b60405180910390fd5b805181602001fd5b63150b7a0260e01b7bffffffffffffffffffffffffffffffffffffffffffffffffffffffff1916817bffffffffffffffffffffffffffffffffffffffffffffffffffffffff1916149150506117b8565b600190505b949350505050565b6117ca838361183e565b6117d76000848484611639565b611816576040517f08c379a000000000000000000000000000000000000000000000000000000000815260040161180d906128ca565b60405180910390fd5b505050565b6000808273ffffffffffffffffffffffffffffffffffffffff163b119050919050565b600073ffffffffffffffffffffffffffffffffffffffff168273ffffffffffffffffffffffffffffffffffffffff16036118ad576040517f08c379a00000000000000000000000000000000000000000000000000000000081526004016118a490612b21565b60405180910390fd5b6118b681610d44565b156118f6576040517f08c379a00000000000000000000000000000000000000000000000000000000081526004016118ed90612b8d565b60405180910390fd5b6119026000838361162f565b6001600360008473ffffffffffffffffffffffffffffffffffffffff1673ffffffffffffffffffffffffffffffffffffffff16815260200190815260200160002060008282546119529190612796565b92505081905550816002600083815260200190815260200160002060006101000a81548173ffffffffffffffffffffffffffffffffffffffff021916908373ffffffffffffffffffffffffffffffffffffffff160217905550808273ffffffffffffffffffffffffffffffffffffffff16600073ffffffffffffffffffffffffffffffffffffffff167fddf252ad1be2c89b69c2b068fc378daa952ba7f163c4a11628f55a4df523b3ef60405160405180910390a4611a1360008383611634565b5050565b6000604051905090565b600080fd5b600080fd5b60007fffffffff0000000000000000000000000000000000000000000000000000000082169050919050565b611a6081611a2b565b8114611a6b57600080fd5b50565b600081359050611a7d81611a57565b92915050565b600060208284031215611a9957611a98611a21565b5b6000611aa784828501611a6e565b91505092915050565b60008115159050919050565b611ac581611ab0565b82525050565b6000602082019050611ae06000830184611abc565b92915050565b600081519050919050565b600082825260208201905092915050565b60005b83811015611b20578082015181840152602081019050611b05565b83811115611b2f576000848401525b50505050565b6000601f19601f8301169050919050565b6000611b5182611ae6565b611b5b8185611af1565b9350611b6b818560208601611b02565b611b7481611b35565b840191505092915050565b60006020820190508181036000830152611b998184611b46565b905092915050565b6000819050919050565b611bb481611ba1565b8114611bbf57600080fd5b50565b600081359050611bd181611bab565b92915050565b600060208284031215611bed57611bec611a21565b5b6000611bfb84828501611bc2565b91505092915050565b600073ffffffffffffffffffffffffffffffffffffffff82169050919050565b6000611c2f82611c04565b9050919050565b611c3f81611c24565b82525050565b6000602082019050611c5a6000830184611c36565b92915050565b611c6981611c24565b8114611c7457600080fd5b50565b600081359050611c8681611c60565b92915050565b60008060408385031215611ca357611ca2611a21565b5b6000611cb185828601611c77565b9250506020611cc285828601611bc2565b9150509250929050565b600080600060608486031215611ce557611ce4611a21565b5b6000611cf386828701611c77565b9350506020611d0486828701611c77565b9250506040611d1586828701611bc2565b9150509250925092565b600060208284031215611d3557611d34611a21565b5b6000611d4384828501611c77565b91505092915050565b611d5581611ba1565b82525050565b6000602082019050611d706000830184611d4c565b92915050565b611d7f81611ab0565b8114611d8a57600080fd5b50565b600081359050611d9c81611d76565b92915050565b60008060408385031215611db957611db8611a21565b5b6000611dc785828601611c77565b9250506020611dd885828601611d8d565b9150509250929050565b600080fd5b600080fd5b7f4e487b7100000000000000000000000000000000000000000000000000000000600052604160045260246000fd5b611e2482611b35565b810181811067ffffffffffffffff82111715611e4357611e42611dec565b5b80604052505050565b6000611e56611a17565b9050611e628282611e1b565b919050565b600067ffffffffffffffff821115611e8257611e81611dec565b5b611e8b82611b35565b9050602081019050919050565b82818337600083830152505050565b6000611eba611eb584611e67565b611e4c565b905082815260208101848484011115611ed657611ed5611de7565b5b611ee1848285611e98565b509392505050565b600082601f830112611efe57611efd611de2565b5b8135611f0e848260208601611ea7565b91505092915050565b60008060008060808587031215611f3157611f30611a21565b5b6000611f3f87828801611c77565b9450506020611f5087828801611c77565b9350506040611f6187828801611bc2565b925050606085013567ffffffffffffffff811115611f8257611f81611a26565b5b611f8e87828801611ee9565b91505092959194509250565b60008060408385031215611fb157611fb0611a21565b5b6000611fbf85828601611c77565b9250506020611fd085828601611c77565b9150509250929050565b7f4e487b7100000000000000000000000000000000000000000000000000000000600052602260045260246000fd5b6000600282049050600182168061202157607f821691505b60208210810361203457612033611fda565b5b50919050565b7f4552433732313a20617070726f76656420717565727920666f72206e6f6e657860008201527f697374656e7420746f6b656e0000000000000000000000000000000000000000602082015250565b6000612096602c83611af1565b91506120a18261203a565b604082019050919050565b600060208201905081810360008301526120c581612089565b9050919050565b7f4552433732313a20617070726f76616c20746f2063757272656e74206f776e6560008201527f7200000000000000000000000000000000000000000000000000000000000000602082015250565b6000612128602183611af1565b9150612133826120cc565b604082019050919050565b600060208201905081810360008301526121578161211b565b9050919050565b7f4552433732313a20617070726f76652063616c6c6572206973206e6f74206f7760008201527f6e6572206e6f7220617070726f76656420666f7220616c6c0000000000000000602082015250565b60006121ba603883611af1565b91506121c58261215e565b604082019050919050565b600060208201905081810360008301526121e9816121ad565b9050919050565b7f4552433732313a207472616e736665722063616c6c6572206973206e6f74206f60008201527f776e6572206e6f7220617070726f766564000000000000000000000000000000602082015250565b600061224c603183611af1565b9150612257826121f0565b604082019050919050565b6000602082019050818103600083015261227b8161223f565b9050919050565b60006060820190506122976000830186611c36565b6122a46020830185611c36565b6122b16040830184611d4c565b949350505050565b6000815190506122c881611d76565b92915050565b6000602082840312156122e4576122e3611a21565b5b60006122f2848285016122b9565b91505092915050565b7f4552433732313a206f776e657220717565727920666f72206e6f6e657869737460008201527f656e7420746f6b656e0000000000000000000000000000000000000000000000602082015250565b6000612357602983611af1565b9150612362826122fb565b604082019050919050565b600060208201905081810360008301526123868161234a565b9050919050565b7f4552433732313a2062616c616e636520717565727920666f7220746865207a6560008201527f726f206164647265737300000000000000000000000000000000000000000000602082015250565b60006123e9602a83611af1565b91506123f48261238d565b604082019050919050565b60006020820190508181036000830152612418816123dc565b9050919050565b7f4552433732314d657461646174613a2055524920717565727920666f72206e6f60008201527f6e6578697374656e7420746f6b656e0000000000000000000000000000000000602082015250565b600061247b602f83611af1565b91506124868261241f565b604082019050919050565b600060208201905081810360008301526124aa8161246e565b9050919050565b600081905092915050565b60006124c782611ae6565b6124d181856124b1565b93506124e1818560208601611b02565b80840191505092915050565b60006124f982856124bc565b915061250582846124bc565b91508190509392505050565b7f6f6e6c792061646d696e00000000000000000000000000000000000000000000600082015250565b6000612547600a83611af1565b915061255282612511565b602082019050919050565b600060208201905081810360008301526125768161253a565b9050919050565b7f4552433732313a206f70657261746f7220717565727920666f72206e6f6e657860008201527f697374656e7420746f6b656e0000000000000000000000000000000000000000602082015250565b60006125d9602c83611af1565b91506125e48261257d565b604082019050919050565b60006020820190508181036000830152612608816125cc565b9050919050565b7f4552433732313a207472616e736665722066726f6d20696e636f72726563742060008201527f6f776e6572000000000000000000000000000000000000000000000000000000602082015250565b600061266b602583611af1565b91506126768261260f565b604082019050919050565b6000602082019050818103600083015261269a8161265e565b9050919050565b7f4552433732313a207472616e7366657220746f20746865207a65726f2061646460008201527f7265737300000000000000000000000000000000000000000000000000000000602082015250565b60006126fd602483611af1565b9150612708826126a1565b604082019050919050565b6000602082019050818103600083015261272c816126f0565b9050919050565b7f4e487b7100000000000000000000000000000000000000000000000000000000600052601160045260246000fd5b600061276d82611ba1565b915061277883611ba1565b92508282101561278b5761278a612733565b5b828203905092915050565b60006127a182611ba1565b91506127ac83611ba1565b9250827fffffffffffffffffffffffffffffffffffffffffffffffffffffffffffffffff038211156127e1576127e0612733565b5b828201905092915050565b7f4552433732313a20617070726f766520746f2063616c6c657200000000000000600082015250565b6000612822601983611af1565b915061282d826127ec565b602082019050919050565b6000602082019050818103600083015261285181612815565b9050919050565b7f4552433732313a207472616e7366657220746f206e6f6e20455243373231526560008201527f63656976657220696d706c656d656e7465720000000000000000000000000000602082015250565b60006128b4603283611af1565b91506128bf82612858565b604082019050919050565b600060208201905081810360008301526128e3816128a7565b9050919050565b60006128f582611ba1565b91507fffffffffffffffffffffffffffffffffffffffffffffffffffffffffffffffff820361292757612926612733565b5b600182019050919050565b7f4e487b7100000000000000000000000000000000000000000000000000000000600052601260045260246000fd5b600061296c82611ba1565b915061297783611ba1565b92508261298757612986612932565b5b828204905092915050565b600061299d82611ba1565b91506129a883611ba1565b9250826129b8576129b7612932565b5b828206905092915050565b7f4e487b7100000000000000000000000000000000000000000000000000000000600052603260045260246000fd5b600081519050919050565b600082825260208201905092915050565b6000612a19826129f2565b612a2381856129fd565b9350612a33818560208601611b02565b612a3c81611b35565b840191505092915050565b6000608082019050612a5c6000830187611c36565b612a696020830186611c36565b612a766040830185611d4c565b8181036060830152612a888184612a0e565b905095945050505050565b600081519050612aa281611a57565b92915050565b600060208284031215612abe57612abd611a21565b5b6000612acc84828501612a93565b91505092915050565b7f4552433732313a206d696e7420746f20746865207a65726f2061646472657373600082015250565b6000612b0b602083611af1565b9150612b1682612ad5565b602082019050919050565b60006020820190508181036000830152612b3a81612afe565b9050919050565b7f4552433732313a20746f6b656e20616c7265616479206d696e74656400000000600082015250565b6000612b77601c83611af1565b9150612b8282612b41565b602082019050919050565b60006020820190508181036000830152612ba681612b6a565b905091905056fea2646970667358221220c2c836fb6904e5e266df2ddda3f62ac57e2d4ea09242a1c7a0c20a86b2bb7b2d64736f6c634300080e0033",
  "immutableReferences": {},
  "source": "// SPDX-License-Identifier: MIT \r\npragma solidity ^0.8.10;\r\n\r\nimport \"@openzeppelin/contracts/token/ERC721/ERC721.sol\";\r\nimport \"@openzeppelin/contracts/token/ERC20/ERC20.sol\";\r\n\r\ncontract andNFT is ERC721 {\r\n    address public admin;\r\n    address paymentToken;\r\n    uint256 price;\r\n\r\n    constructor (address _paymentToken, uint256 _price) ERC721('NFT andres', 'NFTAND') {\r\n        admin = msg.sender;\r\n        paymentToken = _paymentToken;\r\n        price = _price;\r\n    }\r\n\r\n    function mind (address to, uint256 tokenId) external {\r\n        require(msg.sender == admin, 'only admin'); //access control\r\n        ERC20(paymentToken).transferFrom(msg.sender, address(this), price);\r\n        _safeMint(to, tokenId);\r\n    }\r\n\r\n    function burn (uint256 tokenId) external {\r\n        require(msg.sender == ERC721.ownerOf(tokenId));\r\n        ERC20(paymentToken).transferFrom(address(this), msg.sender, price);\r\n        _burn(tokenId);\r\n    }\r\n}",
  "sourcePath": "C:\\Users\\itrmi\\Documents\\camilo_andres_gonzalez_castro\\solidity_training\\contracts\\andNFT.sol",
  "compiler": {
    "name": "solc",
    "version": "0.8.14+commit.80d49f37.Emscripten.clang"
  },
  "schemaVersion": "3.4.7",
  "updatedAt": "2022-06-13T15:58:01.747Z",
  "networkType": "ethereum",
  "devdoc": {
    "kind": "dev",
    "methods": {
      "approve(address,uint256)": {
        "details": "See {IERC721-approve}."
      },
      "balanceOf(address)": {
        "details": "See {IERC721-balanceOf}."
      },
      "getApproved(uint256)": {
        "details": "See {IERC721-getApproved}."
      },
      "isApprovedForAll(address,address)": {
        "details": "See {IERC721-isApprovedForAll}."
      },
      "name()": {
        "details": "See {IERC721Metadata-name}."
      },
      "ownerOf(uint256)": {
        "details": "See {IERC721-ownerOf}."
      },
      "safeTransferFrom(address,address,uint256)": {
        "details": "See {IERC721-safeTransferFrom}."
      },
      "safeTransferFrom(address,address,uint256,bytes)": {
        "details": "See {IERC721-safeTransferFrom}."
      },
      "setApprovalForAll(address,bool)": {
        "details": "See {IERC721-setApprovalForAll}."
      },
      "supportsInterface(bytes4)": {
        "details": "See {IERC165-supportsInterface}."
      },
      "symbol()": {
        "details": "See {IERC721Metadata-symbol}."
      },
      "tokenURI(uint256)": {
        "details": "See {IERC721Metadata-tokenURI}."
      },
      "transferFrom(address,address,uint256)": {
        "details": "See {IERC721-transferFrom}."
      }
    },
    "version": 1
  },
  "userdoc": {
    "kind": "user",
    "methods": {},
    "version": 1
  }
}